:100000000C9463000C948B000C948B000C948B006C
:100010000C948B000C948B000C948B000C948B0034
:100020000C948B000C948B000C948B000C948B0024
:100030000C948B000C948B000C948B000C948B0014
:100040000C9409030C948B000C948B000C948B0083
:100050000C948B000C948B000C948B000C948B00F4
:100060000C948B000C948B000000000024002700EF
:100070002A000000000023002600290000000000E4
:10008000250028002B0004040404040404040202D4
:100090000202020203030303030301020408102007
:1000A0004080010204081020010204081020000012
:1000B0000008000201000003040700000000000027
:1000C00000002206880611241FBECFEFD8E0DEBF55
:1000D000CDBF11E0A0E0B1E0E4EEF1E102C0059097
:1000E0000D92AE30B107D9F725E0AEE0B1E001C026
:1000F0001D92A533B207E1F710E0C2E6D0E004C0DC
:100100002197FE010E94B307C136D107C9F70E94AB
:1001100053030C94E5080C9400004F925F926F9289
:100120007F928F929F92AF92BF92FF9220911D0576
:1001300030911E058217930708F043C02B016624F7
:100140007724852E962EA72EBB24B82DA42F209180
:100150002305F42C222391F0E22FF0E0E49DD0015E
:10016000E59DB00DF49DB00D1124FB2E289D40019E
:100170001124B92D249F90011124A32FE09129056A
:10018000209124053091250550912605E51323C0C3
:10019000FC01EE0FFF1F8E0F9F1F820F931FE09138
:1001A0002605E80FF92FF11DF082E0912705E80FF1
:1001B000F92FF11DB08320912805820F911DFC01BC
:1001C000A083FF90BF90AF909F908F907F906F9093
:1001D0005F904F900895880F991F880F991F820F85
:1001E000931FE80FF92FF11D1082D9CF833081F0D2
:1001F00028F4813099F08230A9F008958730A9F071
:100200008830C9F08430B1F4809180008F7D03C0C4
:10021000809180008F7780938000089584B58F77D8
:1002200084BD089584B58F7DFBCF8091B0008F771A
:100230008093B00008958091B0008F7DF9CFCF9367
:10024000DF93282F30E0F901E255FF4F8491F90147
:10025000E656FF4FD491F901EA57FF4FC491CC23E2
:1002600091F081110E94F600EC2FF0E0EE0FFF1FDD
:10027000E458FF4FA591B4918FB7F894EC91D095C5
:10028000DE23DC938FBFDF91CF910895CF93DF936F
:10029000282F30E0F901E255FF4F8491F901E6562D
:1002A000FF4FD491F901EA57FF4FC491CC23A1F03D
:1002B00081110E94F600EC2FF0E0EE0FFF1FEE58C8
:1002C000FF4FA591B491EC91ED2381E090E009F40A
:1002D00080E0DF91CF91089580E090E0FACFCF9356
:1002E000DF9390E0FC01E656FF4F24918A579F4F21
:1002F000FC0184918823D1F090E0880F991FFC01C4
:10030000E859FF4FA591B491FC01E458FF4FC59106
:10031000D49161110EC09FB7F8948C91E22FE095B3
:100320008E238C932881E223E8839FBFDF91CF91B6
:1003300008958FB7F894EC91E22BEC938FBFF6CF32
:100340003FB7F8948091170590911805A091190571
:10035000B0911A0526B5A89B05C02F3F19F001964C
:10036000A11DB11D3FBFBA2FA92F982F8827BC010F
:10037000CD01620F711D811D911D42E0660F771F37
:10038000881F991F4A95D1F708950F931F93CF9314
:10039000DF93CDB7DEB729970FB6F894DEBF0FBE57
:1003A000CDBF8091240590912505892B09F47CC04F
:1003B0000E94A00100912A0510912B0520912C0587
:1003C00030912D05601771078207930740F4609301
:1003D0002A0570932B0580932C0590932D05009191
:1003E0002A0510912B0520912C0530912D05601BBD
:1003F000710B820B930B6C32714081059105C0F239
:10040000F89480911F05909120059A838983E0914B
:100410002405F0912505DF0111968081898790914F
:100420001B05E0912E05F0912F0580913005992351
:1004300009F445C09081982B9887908180958923F5
:100440008F838F818C8388E08B8358856F8149856A
:100450003B812C8189819A81508347FD252F3A95D4
:100460002083262F39F0441F00C000006083000065
:1004700000C0F2CF38E04D9160830000019761F732
:10048000F0932F05E0932E0549873B832C839A83B5
:10049000898378940E94A00160932A0570932B05AC
:1004A00080932C0590932D0529960FB6F894DEBF06
:1004B0000FBECDBFDF91CF911F910F910895908115
:1004C000982B98879081809589238F838F818E8345
:1004D00088E08D8358856F8149853D812E81898192
:1004E0009A81508347FD252F00C000C0208300C0A3
:1004F00000C000C000C000C060830000262F3A95F5
:1005000041F0441F000000C000C000C000C000C097
:10051000E8CF38E04D9100C0608300C0019709F733
:10052000F0932F05E0932E0549873D832E83AFCFAF
:100530008F929F92AF92BF92CF92DF92EF92FF92F3
:100540004B015C010E94A0016B017C010E94A00193
:100550006C197D098E099F09683E734081059105DC
:10056000A8F321E0821A9108A108B10888EEC80E0C
:1005700083E0D81EE11CF11C81149104A104B10494
:1005800029F7FF90EF90DF90CF90BF90AF909F90B2
:100590008F900895CF92DF92EF92FF9280E1C82E64
:1005A000D12CE12CF12C0E94E406A70196010E94B7
:1005B0003C0770930F0160930E010E94E406A701AF
:1005C00096010E943C079B017093110160931001FA
:1005D000409102015091030160910E0170910F0151
:1005E000E2E1F1E090E080E0841795076CF4A081EF
:1005F000B181A617B70729F4A281B3812A173B0757
:1006000091F201963496F0CFFF90EF90DF90CF906B
:1006100008951F920F920FB60F9211242F933F93BC
:100620008F939F93AF93BF9380911305909114057F
:10063000A0911505B09116053091120523E0230F06
:100640002D3758F50196A11DB11D209312058093F9
:10065000130590931405A0931505B093160580918A
:10066000170590911805A0911905B0911A050196EA
:10067000A11DB11D8093170590931805A09319052E
:10068000B0931A05BF91AF919F918F913F912F9198
:100690000F900FBE0F901F90189526E8230F02961B
:1006A000A11DB11DD2CF789484B5826084BD84B57C
:1006B000816084BD85B5826085BD85B5816085BD5D
:1006C00080916E00816080936E0010928100809115
:1006D000810082608093810080918100816080939D
:1006E0008100809180008160809380008091B100C2
:1006F00084608093B1008091B00081608093B000ED
:1007000080917A00846080937A0080917A00826080
:1007100080937A0080917A00816080937A00809142
:100720007A00806880937A001092C1008091210540
:100730009091220597FD07C061E00E946F018091B2
:1007400021050E941F0181E080931C056091230513
:10075000673929F120912405309125056150C9F0B0
:1007600070E08FEF96E90E949F07F90140911F0505
:1007700050912005CF01821B930B8417950760F4DD
:100780004081469FC001479F900D11249083319670
:10079000EDCF70E060E0E9CF87E9809323050E9408
:1007A000C50188E090E0909313018093120190932B
:1007B0001501809314014091020150910301E2E17F
:1007C000F1E081E090E034968417950784F420915D
:1007D000120130911301281B390B318320832091A2
:1007E000140130911501338322830196ECCF0E94CE
:1007F000CA02E2E02E2E312CF4E08F2E912CA3E0E1
:10080000EA2EF12C08E010E0B7E04B2E512C70E0FE
:10081000672E70E0772EC0910201D0910301C530A0
:10082000D10509F459C00CF044C0C330D10509F416
:100830004EC062EC71E080E090E0C430D10509F474
:1008400043C05E01CE010897039708F04FC06AEFDE
:1008500070E080E090E00E94980280E00E944601F3
:10086000C0900001D0900101892B09F048C084E0BC
:10087000C816D10409F443C0F0920101E0920001CE
:10088000CC0FDD1FCC0FDD1FCE5EDE4F91E0A91A2D
:10089000B10824971A141B040CF05FC0FE013497B2
:1008A00080819181A281B38188839983AA83BB834C
:1008B000EDCFC630D105A9F06CE271E080E090E0A8
:1008C000C730D10509F0BDCF0E949802BACF64EFBE
:1008D00071E080E090E0F8CF60E971E080E090E0C6
:1008E000F3CF6EE571E080E090E0EECFCB30D10544
:1008F0000CF4B3CF68EC70E080E090E0ACCF81E026
:100900000E944601892B21F493E0C916D104B9F461
:1009100082E00E944601892BB9F083E00E944601E3
:10092000892B09F0ADCF92E0C916D10409F4A8CF04
:1009300081E090E09093010180930001A1CF90921B
:100940000101809200019CCF81E0C816D10429F3F7
:10095000309201012092000193CF80911201909179
:10096000130120910001309101012230310509F479
:10097000E4C00CF0CBC001962130310509F4DEC093
:100980008091120190911301409738F480911401E5
:1009900090911501409708F446C040911F05509171
:1009A000200570E060E080912405909125050E946B
:1009B000DE08D0E0C0E040E050E061EE70E0CE0143
:1009C0000E948D002196C11581E0D807A1F70E94F1
:1009D000C50164EF71E080E090E00E949802F0921F
:1009E0000301E0920201109313010093120110938E
:1009F000150100931401F0920101E0920001509260
:100A0000170140921601109319010093180186E016
:100A100090E090931B0180931A0110931D010093A5
:100A20001C010E94CA02C2E1D1E0CC24C394D12CA3
:100A300080911201909113012091020130910301E4
:100A4000C216D3060CF07FC02C813D81821793071C
:100A500009F057C020911401309115018E819F81BA
:100A60002817390709F04DC040911F055091200506
:100A700070E060E080912405909125050E94DE08D9
:100A8000B12CA12C40E050E061EE70E0C5010E9465
:100A90008D009FEFA91AB90AA11481E0B80691F759
:100AA0000E94C50164EF71E080E090E00E9498022E
:100AB000909203018092020110931301009312019E
:100AC0001093150100931401F0920101E0920001CE
:100AD000E2E1F1E081E090E0209112013091130118
:100AE000281B390B35832483209114013091150183
:100AF00037832683019634968430910569F70E94E6
:100B0000CA029FEFC91AD90A249692CF2330310521
:100B100071F08091140190911501019624303105F6
:100B200009F02ECF909315018093140129CF809165
:100B30001401909115010197F5CF0197909313013E
:100B4000809312011DCF20910E0130910F01821769
:100B5000930769F5209110013091110180911401E2
:100B6000909115012817390711F50E94CA0280914A
:100B70000201909103019C012F5F3F4F30930301CD
:100B800020930201FC01EE0FFF1FEE0FFF1FEE5E30
:100B9000FE4F34971816190654F40197408151817D
:100BA000628173814483558366837783F2CF40915A
:100BB0001F055091200570E060E080912405909120
:100BC00025050E94DE08C2E1D1E0D12CC12C809124
:100BD000020190910301C816D906B4F48A819B8161
:100BE00034E0880F991F3A95E1F7288139814FEF5A
:100BF00057E368EC70E0820F931F0E948D008FEF27
:100C0000C81AD80A2496E3CF80911001909111015F
:100C100024E0880F991F2A95E1F720910E01309169
:100C20000F014FEF5FEF62E270E0820F931F0E94AF
:100C30008D000E94C5016114710409F4ECCD0E947D
:100C40000000E5CDCF93DF9310921C051092230591
:100C500010922A0510922B0510922C0510922D054A
:100C600081E080932905809326051092270592E064
:100C70009093280580931B05C0E0D3E0D093200516
:100C8000C0931F0580E093E00E94B907909325056B
:100C900080932405009799F1FC019E011192215047
:100CA0003040E1F780E091E090931E0580931D05B0
:100CB0008BE090E0909322058093210580911C05A4
:100CC000882339F061E08BE00E946F018BE00E9485
:100CD0001F01E1E9F0E0E491F0E0EE0FFF1FE458BE
:100CE000FF4F8591949190932F0580932E05E5EA0F
:100CF000F0E0E491E0933005DF91CF9108951092F8
:100D0000200510921F0510921E0510921D05D0CFD0
:100D100080912405909125050E9455088091210518
:100D20009091220597FD03C060E00C946F01089537
:100D30008F929F92AF92BF92CF92DF92EF92FF92EB
:100D4000CF93DF93EC01688179818A819B81611562
:100D500071058105910521F464E279ED8BE597E059
:100D60002DE133EF41E050E00E943C0749015A0178
:100D70009B01AC01A7EAB1E40E945B076B017C0117
:100D8000ACEEB4EFA50194010E946907C60ED71E10
:100D9000E81EF91EF7FE06C081E0C81AD108E10876
:100DA00080E8F80AC882D982EA82FB82C701B601CC
:100DB0009F77DF91CF91FF90EF90DF90CF90BF9022
:100DC000AF909F908F9008958F929F92AF92BF9215
:100DD000CF92DF92EF92FF92609104017091050132
:100DE00080910601909107016115710581059105BA
:100DF00021F464E279ED8BE597E02DE133EF41E0FA
:100E000050E00E943C0749015A019B01AC01A7EA4E
:100E1000B1E40E945B076B017C01ACEEB4EFA5016D
:100E200094010E946907C60ED71EE81EF91EF7FE40
:100E300006C081E0C81AD108E10880E8F80AC0922B
:100E40000401D0920501E0920601F0920701C7016A
:100E5000B6019F77FF90EF90DF90CF90BF90AF905B
:100E60009F908F9008956093040170930501809383
:100E70000601909307010895052E97FB1EF4009438
:100E80000E94530757FD07D00E946E0707FC03D04E
:100E90004EF40C94530750954095309521953F4F53
:100EA0004F4F5F4F089590958095709561957F4F56
:100EB0008F4F9F4F08950E949007A59F900DB49F5C
:100EC000900DA49F800D911D11240895B7FF0C94DF
:100ED0005B070E945B07821B930B0895A1E21A2E09
:100EE000AA1BBB1BFD010DC0AA1FBB1FEE1FFF1FCE
:100EF000A217B307E407F50720F0A21BB30BE40B1E
:100F0000F50B661F771F881F991F1A9469F7609564
:100F10007095809590959B01AC01BD01CF0108951E
:100F2000A29FB001B39FC001A39F700D811D11242A
:100F3000911DB29F700D811D1124911D0895AA1B52
:100F4000BB1B51E107C0AA1FBB1FA617B70710F0B4
:100F5000A61BB70B881F991F5A95A9F780959095E6
:100F6000BC01CD010895EE0FFF1F0590F491E02D17
:100F700009940F931F93CF93DF938230910510F460
:100F800082E090E0E0913305F091340530E020E01C
:100F9000B0E0A0E0309799F42115310509F44AC07A
:100FA000281B390B24303105D8F58A819B816115C6
:100FB000710589F1FB0193838283FE0111C0408199
:100FC00051810281138148175907E0F048175907EA
:100FD00099F4109761F012960C93129713961C9344
:100FE0003296CF01DF91CF911F910F910895009319
:100FF000330510933405F4CF2115310551F0421714
:10100000530738F0A901DB019A01BD01DF01F801A6
:10101000C1CFEF01F9CF9093340580933305CDCF45
:10102000FE01E20FF31F819391932250310939831E
:101030002883D7CF2091310530913205232B41F4FD
:1010400020910A0130910B01309332052093310534
:1010500020910801309109012115310541F42DB786
:101060003EB740910C0150910D01241B350BE091CE
:101070003105F0913205E217F307A0F42E1B3F0B68
:101080002817390778F0AC014E5F5F4F24173507FA
:1010900048F04E0F5F1F5093320540933105819306
:1010A00091939FCFF0E0E0E09CCFCF93DF93009748
:1010B000E9F0FC01329713821282A0913305B091BE
:1010C0003405ED0130E020E01097A1F4208131815A
:1010D000820F931F2091310530913205281739076F
:1010E00009F061C0F0933205E0933105DF91CF91B3
:1010F0000895EA01CE17DF07E8F54A815B819E017A
:1011000041155105B1F7E901FB83EA8349915991F2
:10111000C40FD51FEC17FD0761F480819181029601
:10112000840F951FE90199838883828193819B8332
:101130008A83F0E0E0E012968D919C9113970097DE
:10114000B9F52D913C911197CD010296820F931F15
:1011500020913105309132052817390739F630973B
:1011600051F51092340510923305B0933205A093D7
:101170003105BCCFD383C28340815181840F951F39
:10118000C817D90761F44E5F5F4F88819981480F76
:10119000591F518340838A819B81938382832115C8
:1011A000310509F0B0CFF0933405E09333059ECFBD
:1011B000FD01DC01C0CF13821282D7CFDC0101C058
:1011C0006D9341505040E0F7089510E0C2E6D0E042
:1011D00004C0FE010E94B3072196C336D107C9F7A8
:0411E000F894FFCFB1
:0E11E40003000300010000000000350580003C
:00000001FF
